:020000040000FA
:100000000C945C000C946E000C946E000C946E00CA
:100010000C946E000C946E000C946E000C946E00A8
:100020000C946E000C946E000C946E000C946E0098
:100030000C946E000C946E000C9415010C946E00E0
:100040000C94CB000C946E000C946E000C946E001B
:100050000C946E000C946E000C946E000C946E0068
:100060000C946E000C946E00000000080002010069
:100070000003040700000000000000000000000072
:10008000250028002B0000000000240027002A0083
:10009000040404040404040402020202020203032E
:1000A0000303030301020408102040800102040836
:1000B000102001020408102011241FBECFEFD8E049
:1000C000DEBFCDBF21E0A0E0B1E001C01D92AC30A9
:1000D000B207E1F70E942C010C94D9030C940000A4
:1000E00020910101309102012817390754F08091C5
:1000F000000191E089278093000110920201109283
:100100000101E5E7F0E09491E1EBF0E08491EDE9A5
:10011000F0E0E491EE23D9F020910001992339F029
:10012000933001F1A8F4913019F1923029F1F0E007
:10013000EE0FFF1FE458FF4FA591B4919FB7F894BD
:10014000EC91211126C080958E238C939FBF08953A
:100150009730A9F09830C9F0943049F79091800019
:100160009F7D03C0909180009F7790938000DFCFA8
:1001700094B59F7794BDDBCF94B59F7DFBCF9091D5
:10018000B0009F779093B000D2CF9091B0009F7D48
:10019000F9CF8E2BDACF1F920F920FB60F92112448
:1001A0002F933F938F939F93AF93BF9380910801B9
:1001B00090910901A0910A01B0910B0130910701C2
:1001C00023E0230F2D3758F50196A11DB11D209373
:1001D00007018093080190930901A0930A01B0934D
:1001E0000B018091030190910401A0910501B09150
:1001F00006010196A11DB11D809303019093040196
:10020000A0930501B0930601BF91AF919F918F918B
:100210003F912F910F900FBE0F901F90189526E8D9
:10022000230F0296A11DB11DD2CF1F920F920FB6C0
:100230000F9211248F939F9380910101909102015D
:10024000019690930201809301019F918F910F90ED
:100250000FBE0F901F901895789484B5826084BD6E
:1002600084B5816084BD85B5826085BD85B58160BA
:1002700085BD80916E00816080936E001092810038
:1002800080918100826080938100809181008160F3
:1002900080938100809180008160809380008091B4
:1002A000B10084608093B1008091B0008160809340
:1002B000B00080917A00846080937A0080917A0007
:1002C000826080937A0080917A00816080937A00C6
:1002D00080917A00806880937A001092C100E1EBEF
:1002E000F0E02491EDE9F0E08491882399F090E02A
:1002F000880F991FFC01EA57FF4FA591B491FC01AB
:10030000E458FF4F859194918FB7F894EC91E22BCC
:10031000EC938FBF84B5826084BD8AEF87BD8091E6
:100320006E00826080936E0085B5836085BD789491
:1003300010E4C0E0D0E010937C0080917A008064EB
:1003400080937A0080917A0086FDFCCF60917800DE
:1003500070917900072E000C880B990B0E94BC024B
:100360002DEC3CEC4CE950E40E946C0320E030E0C2
:100370004AEF53E40E94D60120E030E040E251E42D
:100380000E94480220E030E040EF51E40E94430226
:1003900087FF09C08AEF90E00E947000209759F211
:1003A0000E940000C8CF84EF91E0F6CF5058BB27E1
:1003B000AA270E94EE010C9432030E94240338F015
:1003C0000E942B0320F039F49F3F19F426F40C947B
:1003D00021030EF4E095E7FB0C941B03E92F0E9428
:1003E000430358F3BA17620773078407950720F091
:1003F00079F4A6F50C9465030EF4E0950B2EBA2F54
:10040000A02D0B01B90190010C01CA01A00111241A
:10041000FF27591B99F0593F50F4503E68F11A16C6
:10042000F040A22F232F342F4427585FF3CF469557
:1004300037952795A795F0405395C9F77EF41F1679
:10044000BA0B620B730B840BBAF09150A1F0FF0F43
:10045000BB1F661F771F881FC2F70EC0BA0F621F2F
:10046000731F841F48F4879577956795B795F7951F
:100470009E3F08F0B0CF9395880F08F09927EE0FB4
:100480009795879508950E94F70208F481E00895F2
:100490000E945C020C9432030E942B0358F00E94CD
:1004A000240340F029F45F3F29F00C941B03511101
:1004B0000C9466030C9421030E94430368F3992370
:1004C000B1F3552391F3951B550BBB27AA27621750
:1004D0007307840738F09F5F5F4F220F331F441F5D
:1004E000AA1FA9F335D00E2E3AF0E0E832D0915091
:1004F0005040E695001CCAF72BD0FE2F29D0660F7E
:10050000771F881FBB1F261737074807AB07B0E8C0
:1005100009F0BB0B802DBF01FF2793585F4F3AF0C6
:100520009E3F510578F00C941B030C9466035F3FCB
:10053000E4F3983ED4F3869577956795B795F7954C
:100540009F5FC9F7880F911D9695879597F9089534
:10055000E1E0660F771F881FBB1F621773078407D0
:10056000BA0720F0621B730B840BBA0BEE1F88F7DF
:10057000E0950895E89409C097FB3EF49095809526
:10058000709561957F4F8F4F9F4F9923A9F0F92F59
:1005900096E9BB279395F695879577956795B795D7
:1005A000F111F8CFFAF4BB0F11F460FF1BC06F5FBD
:1005B0007F4F8F4F9F4F16C0882311F096E911C0CF
:1005C000772321F09EE8872F762F05C0662371F0F0
:1005D00096E8862F70E060E02AF09A95660F771F04
:1005E000881FDAF7880F9695879597F90895990FE0
:1005F0000008550FAA0BE0E8FEEF16161706E807ED
:10060000F907C0F012161306E407F50798F0621B0D
:10061000730B840B950B39F40A2661F0232B242BE2
:10062000252B21F408950A2609F4A140A6958FEF01
:10063000811D811D089597F99F6780E870E060E053
:1006400008959FEF80EC089500240A94161617066B
:1006500018060906089500240A94121613061406B3
:1006600005060895092E0394000C11F4882352F016
:10067000BB0F40F4BF2B11F460FF04C06F5F7F4FCE
:100680008F4F9F4F089557FD9058440F551F59F0B5
:100690005F3F71F04795880F97FB991F61F09F3F6F
:1006A00079F087950895121613061406551FF2CF98
:1006B0004695F1DF08C0161617061806991FF1CFE8
:1006C00086957105610508940895E894BB2766270F
:1006D0007727CB0197F908950E947F030C9432038A
:1006E0000E94240338F00E942B0320F0952311F080
:1006F0000C941B030C94210311240C9466030E9498
:10070000430370F3959FC1F3950F50E0551F629F0F
:10071000F001729FBB27F00DB11D639FAA27F00D5A
:10072000B11DAA1F649F6627B00DA11D661F829F81
:100730002227B00DA11D621F739FB00DA11D621F66
:10074000839FA00D611D221F749F3327A00D611D83
:10075000231F849F600D211D822F762F6A2F112465
:100760009F5750409AF0F1F088234AF0EE0FFF1F98
:10077000BB1F661F771F881F91505040A9F79E3FEF
:10078000510580F00C941B030C9466035F3FE4F367
:10079000983ED4F3869577956795B795F795E79545
:1007A0009F5FC1F7FE2B880F911D9695879597F94E
:0607B0000895F894FFCF4C
:107E0000112484B714BE81FFF0D085E080938100F7
:107E100082E08093C00088E18093C10086E0809377
:107E2000C20080E18093C4008EE0C9D0259A86E02C
:107E300020E33CEF91E0309385002093840096BBD3
:107E4000B09BFECF1D9AA8958150A9F7CC24DD24C4
:107E500088248394B5E0AB2EA1E19A2EF3E0BF2EE7
:107E6000A2D0813461F49FD0082FAFD0023811F036
:107E7000013811F484E001C083E08DD089C08234E0
:107E800011F484E103C0853419F485E0A6D080C0E4
:107E9000853579F488D0E82EFF2485D0082F10E0AE
:107EA000102F00270E291F29000F111F8ED06801E7
:107EB0006FC0863521F484E090D080E0DECF843638
:107EC00009F040C070D06FD0082F6DD080E0C81688
:107ED00080E7D80618F4F601B7BEE895C0E0D1E017
:107EE00062D089930C17E1F7F0E0CF16F0E7DF06D8
:107EF00018F0F601B7BEE89568D007B600FCFDCFD4
:107F0000A601A0E0B1E02C9130E011968C91119780
:107F100090E0982F8827822B932B1296FA010C0160
:107F200087BEE89511244E5F5F4FF1E0A038BF0790
:107F300051F7F601A7BEE89507B600FCFDCF97BE46
:107F4000E89526C08437B1F42ED02DD0F82E2BD052
:107F50003CD0F601EF2C8F010F5F1F4F84911BD097
:107F6000EA94F801C1F70894C11CD11CFA94CF0C13
:107F7000D11C0EC0853739F428D08EE10CD085E9AC
:107F80000AD08FE07ACF813511F488E018D01DD067
:107F900080E101D065CF982F8091C00085FFFCCF94
:107FA0009093C60008958091C00087FFFCCF809118
:107FB000C00084FD01C0A8958091C6000895E0E648
:107FC000F0E098E1908380830895EDDF803219F02E
:107FD00088E0F5DFFFCF84E1DECF1F93182FE3DFCA
:107FE0001150E9F7F2DF1F91089580E0E8DFEE27F6
:047FF000FF270994CA
:027FFE00040479
:00000001FF
