:100000000C945C000C946E000C946E000C946E00CA
:100010000C946E000C946E000C946E000C946E00A8
:100020000C946E000C946E000C946E000C946E0098
:100030000C946E000C946E000C9415010C946E00E0
:100040000C94CB000C946E000C946E000C946E001B
:100050000C946E000C946E000C946E000C946E0068
:100060000C946E000C946E00000000080002010069
:100070000003040700000000000000000000000072
:10008000250028002B0000000000240027002A0083
:10009000040404040404040402020202020203032E
:1000A0000303030301020408102040800102040836
:1000B000102001020408102011241FBECFEFD8E049
:1000C000DEBFCDBF21E0A0E0B1E001C01D92AC30A9
:1000D000B207E1F70E942C010C9464020C9400001A
:1000E00020910101309102012817390754F08091C5
:1000F000000191E089278093000110920201109283
:100100000101E5E7F0E09491E1EBF0E08491EDE9A5
:10011000F0E0E491EE23D9F020910001992339F029
:10012000933001F1A8F4913019F1923029F1F0E007
:10013000EE0FFF1FE458FF4FA591B4919FB7F894BD
:10014000EC91211126C080958E238C939FBF08953A
:100150009730A9F09830C9F0943049F79091800019
:100160009F7D03C0909180009F7790938000DFCFA8
:1001700094B59F7794BDDBCF94B59F7DFBCF9091D5
:10018000B0009F779093B000D2CF9091B0009F7D48
:10019000F9CF8E2BDACF1F920F920FB60F92112448
:1001A0002F933F938F939F93AF93BF9380910801B9
:1001B00090910901A0910A01B0910B0130910701C2
:1001C00023E0230F2D3758F50196A11DB11D209373
:1001D00007018093080190930901A0930A01B0934D
:1001E0000B018091030190910401A0910501B09150
:1001F00006010196A11DB11D809303019093040196
:10020000A0930501B0930601BF91AF919F918F918B
:100210003F912F910F900FBE0F901F90189526E8D9
:10022000230F0296A11DB11DD2CF1F920F920FB6C0
:100230000F9211248F939F9380910101909102015D
:10024000019690930201809301019F918F910F90ED
:100250000FBE0F901F901895789484B5826084BD6E
:1002600084B5816084BD85B5826085BD85B58160BA
:1002700085BD80916E00816080936E001092810038
:1002800080918100826080938100809181008160F3
:1002900080938100809180008160809380008091B4
:1002A000B10084608093B1008091B0008160809340
:1002B000B00080917A00846080937A0080917A0007
:1002C000826080937A0080917A00816080937A00C6
:1002D00080917A00806880937A001092C100E1EBEF
:1002E000F0E02491EDE9F0E08491882399F090E02A
:1002F000880F991FFC01EA57FF4FA591B491FC01AB
:10030000E458FF4F859194918FB7F894EC91E22BCC
:10031000EC938FBF84B5826084BD8AEF87BD8091E6
:100320006E00826080936E0085B5836085BD789491
:1003300080E4D82EC4EFD1E00FEF13E090E0E92E77
:1003400090E0F92ED0927C0080917A0080648093B6
:100350007A0080917A0086FDFCCF20917800309160
:1003600079002C9FC0012D9F900D3C9F900D112472
:10037000B8010E943C02072E000C880B990B0E94CA
:10038000DD0120E030E040EF51E40E94D60187FF1C
:100390000AC08AEF90E00E947000E114F10491F22B
:1003A0000E940000CFCF84EF91E0F5CF0E941802A9
:1003B00008F481E00895E89409C097FB3EF4909515
:1003C0008095709561957F4F8F4F9F4F9923A9F02E
:1003D000F92F96E9BB279395F695879577956795BD
:1003E000B795F111F8CFFAF4BB0F11F460FF1BC001
:1003F0006F5F7F4F8F4F9F4F16C0882311F096E994
:1004000011C0772321F09EE8872F762F05C0662341
:1004100071F096E8862F70E060E02AF09A95660FFA
:10042000771F881FDAF7880F9695879597F90895B3
:10043000990F0008550FAA0BE0E8FEEF16161706F5
:10044000E807F907C0F012161306E407F50798F05D
:10045000621B730B840B950B39F40A2661F0232B76
:10046000242B252B21F408950A2609F4A140A695F2
:100470008FEF811D811D089597FB072E16F40094C0
:1004800007D077FD09D00E94500207FC05D03EF44A
:10049000909581959F4F0895709561957F4F089530
:1004A000AA1BBB1B51E107C0AA1FBB1FA617B7079A
:1004B00010F0A61BB70B881F991F5A95A9F78095B6
:0C04C0009095BC01CD010895F894FFCF89
:00000001FF
